{
  "_format": "hh-sol-artifact-1",
  "contractName": "MockERC721",
  "sourceName": "contracts/MockERC721.sol",
  "abi": [
    {
      "inputs": [],
      "stateMutability": "nonpayable",
      "type": "constructor"
    },
    {
      "inputs": [
        {
          "internalType": "address",
          "name": "sender",
          "type": "address"
        },
        {
          "internalType": "uint256",
          "name": "tokenId",
          "type": "uint256"
        },
        {
          "internalType": "address",
          "name": "owner",
          "type": "address"
        }
      ],
      "name": "ERC721IncorrectOwner",
      "type": "error"
    },
    {
      "inputs": [
        {
          "internalType": "address",
          "name": "operator",
          "type": "address"
        },
        {
          "internalType": "uint256",
          "name": "tokenId",
          "type": "uint256"
        }
      ],
      "name": "ERC721InsufficientApproval",
      "type": "error"
    },
    {
      "inputs": [
        {
          "internalType": "address",
          "name": "approver",
          "type": "address"
        }
      ],
      "name": "ERC721InvalidApprover",
      "type": "error"
    },
    {
      "inputs": [
        {
          "internalType": "address",
          "name": "operator",
          "type": "address"
        }
      ],
      "name": "ERC721InvalidOperator",
      "type": "error"
    },
    {
      "inputs": [
        {
          "internalType": "address",
          "name": "owner",
          "type": "address"
        }
      ],
      "name": "ERC721InvalidOwner",
      "type": "error"
    },
    {
      "inputs": [
        {
          "internalType": "address",
          "name": "receiver",
          "type": "address"
        }
      ],
      "name": "ERC721InvalidReceiver",
      "type": "error"
    },
    {
      "inputs": [
        {
          "internalType": "address",
          "name": "sender",
          "type": "address"
        }
      ],
      "name": "ERC721InvalidSender",
      "type": "error"
    },
    {
      "inputs": [
        {
          "internalType": "uint256",
          "name": "tokenId",
          "type": "uint256"
        }
      ],
      "name": "ERC721NonexistentToken",
      "type": "error"
    },
    {
      "inputs": [
        {
          "internalType": "address",
          "name": "owner",
          "type": "address"
        }
      ],
      "name": "OwnableInvalidOwner",
      "type": "error"
    },
    {
      "inputs": [
        {
          "internalType": "address",
          "name": "account",
          "type": "address"
        }
      ],
      "name": "OwnableUnauthorizedAccount",
      "type": "error"
    },
    {
      "anonymous": false,
      "inputs": [
        {
          "indexed": true,
          "internalType": "address",
          "name": "owner",
          "type": "address"
        },
        {
          "indexed": true,
          "internalType": "address",
          "name": "approved",
          "type": "address"
        },
        {
          "indexed": true,
          "internalType": "uint256",
          "name": "tokenId",
          "type": "uint256"
        }
      ],
      "name": "Approval",
      "type": "event"
    },
    {
      "anonymous": false,
      "inputs": [
        {
          "indexed": true,
          "internalType": "address",
          "name": "owner",
          "type": "address"
        },
        {
          "indexed": true,
          "internalType": "address",
          "name": "operator",
          "type": "address"
        },
        {
          "indexed": false,
          "internalType": "bool",
          "name": "approved",
          "type": "bool"
        }
      ],
      "name": "ApprovalForAll",
      "type": "event"
    },
    {
      "anonymous": false,
      "inputs": [
        {
          "indexed": true,
          "internalType": "address",
          "name": "previousOwner",
          "type": "address"
        },
        {
          "indexed": true,
          "internalType": "address",
          "name": "newOwner",
          "type": "address"
        }
      ],
      "name": "OwnershipTransferred",
      "type": "event"
    },
    {
      "anonymous": false,
      "inputs": [
        {
          "indexed": true,
          "internalType": "address",
          "name": "from",
          "type": "address"
        },
        {
          "indexed": true,
          "internalType": "address",
          "name": "to",
          "type": "address"
        },
        {
          "indexed": true,
          "internalType": "uint256",
          "name": "tokenId",
          "type": "uint256"
        }
      ],
      "name": "Transfer",
      "type": "event"
    },
    {
      "inputs": [
        {
          "internalType": "address",
          "name": "to",
          "type": "address"
        },
        {
          "internalType": "uint256",
          "name": "tokenId",
          "type": "uint256"
        }
      ],
      "name": "approve",
      "outputs": [],
      "stateMutability": "nonpayable",
      "type": "function"
    },
    {
      "inputs": [
        {
          "internalType": "address",
          "name": "owner",
          "type": "address"
        }
      ],
      "name": "balanceOf",
      "outputs": [
        {
          "internalType": "uint256",
          "name": "",
          "type": "uint256"
        }
      ],
      "stateMutability": "view",
      "type": "function"
    },
    {
      "inputs": [
        {
          "internalType": "uint256",
          "name": "tokenId",
          "type": "uint256"
        }
      ],
      "name": "getApproved",
      "outputs": [
        {
          "internalType": "address",
          "name": "",
          "type": "address"
        }
      ],
      "stateMutability": "view",
      "type": "function"
    },
    {
      "inputs": [
        {
          "internalType": "address",
          "name": "owner",
          "type": "address"
        },
        {
          "internalType": "address",
          "name": "operator",
          "type": "address"
        }
      ],
      "name": "isApprovedForAll",
      "outputs": [
        {
          "internalType": "bool",
          "name": "",
          "type": "bool"
        }
      ],
      "stateMutability": "view",
      "type": "function"
    },
    {
      "inputs": [],
      "name": "name",
      "outputs": [
        {
          "internalType": "string",
          "name": "",
          "type": "string"
        }
      ],
      "stateMutability": "view",
      "type": "function"
    },
    {
      "inputs": [],
      "name": "owner",
      "outputs": [
        {
          "internalType": "address",
          "name": "",
          "type": "address"
        }
      ],
      "stateMutability": "view",
      "type": "function"
    },
    {
      "inputs": [
        {
          "internalType": "uint256",
          "name": "tokenId",
          "type": "uint256"
        }
      ],
      "name": "ownerOf",
      "outputs": [
        {
          "internalType": "address",
          "name": "",
          "type": "address"
        }
      ],
      "stateMutability": "view",
      "type": "function"
    },
    {
      "inputs": [],
      "name": "renounceOwnership",
      "outputs": [],
      "stateMutability": "nonpayable",
      "type": "function"
    },
    {
      "inputs": [
        {
          "internalType": "address",
          "name": "to",
          "type": "address"
        },
        {
          "internalType": "uint256",
          "name": "tokenId",
          "type": "uint256"
        }
      ],
      "name": "safeMint",
      "outputs": [],
      "stateMutability": "nonpayable",
      "type": "function"
    },
    {
      "inputs": [
        {
          "internalType": "address",
          "name": "from",
          "type": "address"
        },
        {
          "internalType": "address",
          "name": "to",
          "type": "address"
        },
        {
          "internalType": "uint256",
          "name": "tokenId",
          "type": "uint256"
        }
      ],
      "name": "safeTransferFrom",
      "outputs": [],
      "stateMutability": "nonpayable",
      "type": "function"
    },
    {
      "inputs": [
        {
          "internalType": "address",
          "name": "from",
          "type": "address"
        },
        {
          "internalType": "address",
          "name": "to",
          "type": "address"
        },
        {
          "internalType": "uint256",
          "name": "tokenId",
          "type": "uint256"
        },
        {
          "internalType": "bytes",
          "name": "data",
          "type": "bytes"
        }
      ],
      "name": "safeTransferFrom",
      "outputs": [],
      "stateMutability": "nonpayable",
      "type": "function"
    },
    {
      "inputs": [
        {
          "internalType": "address",
          "name": "operator",
          "type": "address"
        },
        {
          "internalType": "bool",
          "name": "approved",
          "type": "bool"
        }
      ],
      "name": "setApprovalForAll",
      "outputs": [],
      "stateMutability": "nonpayable",
      "type": "function"
    },
    {
      "inputs": [
        {
          "internalType": "bytes4",
          "name": "interfaceId",
          "type": "bytes4"
        }
      ],
      "name": "supportsInterface",
      "outputs": [
        {
          "internalType": "bool",
          "name": "",
          "type": "bool"
        }
      ],
      "stateMutability": "view",
      "type": "function"
    },
    {
      "inputs": [],
      "name": "symbol",
      "outputs": [
        {
          "internalType": "string",
          "name": "",
          "type": "string"
        }
      ],
      "stateMutability": "view",
      "type": "function"
    },
    {
      "inputs": [
        {
          "internalType": "uint256",
          "name": "tokenId",
          "type": "uint256"
        }
      ],
      "name": "tokenURI",
      "outputs": [
        {
          "internalType": "string",
          "name": "",
          "type": "string"
        }
      ],
      "stateMutability": "view",
      "type": "function"
    },
    {
      "inputs": [
        {
          "internalType": "address",
          "name": "from",
          "type": "address"
        },
        {
          "internalType": "address",
          "name": "to",
          "type": "address"
        },
        {
          "internalType": "uint256",
          "name": "tokenId",
          "type": "uint256"
        }
      ],
      "name": "transferFrom",
      "outputs": [],
      "stateMutability": "nonpayable",
      "type": "function"
    },
    {
      "inputs": [
        {
          "internalType": "address",
          "name": "newOwner",
          "type": "address"
        }
      ],
      "name": "transferOwnership",
      "outputs": [],
      "stateMutability": "nonpayable",
      "type": "function"
    }
  ],
  "bytecode": "0x60806040523480156200001157600080fd5b50336040518060400160405280600781526020017f4d6f636b4e4654000000000000000000000000000000000000000000000000008152506040518060400160405280600481526020017f4d4e465400000000000000000000000000000000000000000000000000000000815250816000908162000090919062000472565b508060019081620000a2919062000472565b505050600073ffffffffffffffffffffffffffffffffffffffff168173ffffffffffffffffffffffffffffffffffffffff16036200011a5760006040517f1e4fbdf70000000000000000000000000000000000000000000000000000000081526004016200011191906200059e565b60405180910390fd5b6200012b816200013260201b60201c565b50620005bb565b6000600660009054906101000a900473ffffffffffffffffffffffffffffffffffffffff16905081600660006101000a81548173ffffffffffffffffffffffffffffffffffffffff021916908373ffffffffffffffffffffffffffffffffffffffff1602179055508173ffffffffffffffffffffffffffffffffffffffff168173ffffffffffffffffffffffffffffffffffffffff167f8be0079c531659141344cd1fd0a4f28419497f9722a3daafe3b4186f6b6457e060405160405180910390a35050565b600081519050919050565b7f4e487b7100000000000000000000000000000000000000000000000000000000600052604160045260246000fd5b7f4e487b7100000000000000000000000000000000000000000000000000000000600052602260045260246000fd5b600060028204905060018216806200027a57607f821691505b60208210810362000290576200028f62000232565b5b50919050565b60008190508160005260206000209050919050565b60006020601f8301049050919050565b600082821b905092915050565b600060088302620002fa7fffffffffffffffffffffffffffffffffffffffffffffffffffffffffffffffff82620002bb565b620003068683620002bb565b95508019841693508086168417925050509392505050565b6000819050919050565b6000819050919050565b6000620003536200034d62000347846200031e565b62000328565b6200031e565b9050919050565b6000819050919050565b6200036f8362000332565b620003876200037e826200035a565b848454620002c8565b825550505050565b600090565b6200039e6200038f565b620003ab81848462000364565b505050565b5b81811015620003d357620003c760008262000394565b600181019050620003b1565b5050565b601f8211156200042257620003ec8162000296565b620003f784620002ab565b8101602085101562000407578190505b6200041f6200041685620002ab565b830182620003b0565b50505b505050565b600082821c905092915050565b6000620004476000198460080262000427565b1980831691505092915050565b600062000462838362000434565b9150826002028217905092915050565b6200047d82620001f8565b67ffffffffffffffff81111562000499576200049862000203565b5b620004a5825462000261565b620004b2828285620003d7565b600060209050601f831160018114620004ea5760008415620004d5578287015190505b620004e1858262000454565b86555062000551565b601f198416620004fa8662000296565b60005b828110156200052457848901518255600182019150602085019450602081019050620004fd565b8683101562000544578489015162000540601f89168262000434565b8355505b6001600288020188555050505b505050505050565b600073ffffffffffffffffffffffffffffffffffffffff82169050919050565b6000620005868262000559565b9050919050565b620005988162000579565b82525050565b6000602082019050620005b560008301846200058d565b92915050565b61207c80620005cb6000396000f3fe608060405234801561001057600080fd5b506004361061010b5760003560e01c8063715018a6116100a2578063a22cb46511610071578063a22cb465146102a4578063b88d4fde146102c0578063c87b56dd146102dc578063e985e9c51461030c578063f2fde38b1461033c5761010b565b8063715018a6146102425780638da5cb5b1461024c57806395d89b411461026a578063a1448194146102885761010b565b806323b872dd116100de57806323b872dd146101aa57806342842e0e146101c65780636352211e146101e257806370a08231146102125761010b565b806301ffc9a71461011057806306fdde0314610140578063081812fc1461015e578063095ea7b31461018e575b600080fd5b61012a600480360381019061012591906118c6565b610358565b604051610137919061190e565b60405180910390f35b61014861043a565b60405161015591906119b9565b60405180910390f35b61017860048036038101906101739190611a11565b6104cc565b6040516101859190611a7f565b60405180910390f35b6101a860048036038101906101a39190611ac6565b6104e8565b005b6101c460048036038101906101bf9190611b06565b6104fe565b005b6101e060048036038101906101db9190611b06565b610600565b005b6101fc60048036038101906101f79190611a11565b610620565b6040516102099190611a7f565b60405180910390f35b61022c60048036038101906102279190611b59565b610632565b6040516102399190611b95565b60405180910390f35b61024a6106ec565b005b610254610700565b6040516102619190611a7f565b60405180910390f35b61027261072a565b60405161027f91906119b9565b60405180910390f35b6102a2600480360381019061029d9190611ac6565b6107bc565b005b6102be60048036038101906102b99190611bdc565b6107d2565b005b6102da60048036038101906102d59190611d51565b6107e8565b005b6102f660048036038101906102f19190611a11565b61080d565b60405161030391906119b9565b60405180910390f35b61032660048036038101906103219190611dd4565b610876565b604051610333919061190e565b60405180910390f35b61035660048036038101906103519190611b59565b61090a565b005b60007f80ac58cd000000000000000000000000000000000000000000000000000000007bffffffffffffffffffffffffffffffffffffffffffffffffffffffff1916827bffffffffffffffffffffffffffffffffffffffffffffffffffffffff1916148061042357507f5b5e139f000000000000000000000000000000000000000000000000000000007bffffffffffffffffffffffffffffffffffffffffffffffffffffffff1916827bffffffffffffffffffffffffffffffffffffffffffffffffffffffff1916145b80610433575061043282610990565b5b9050919050565b60606000805461044990611e43565b80601f016020809104026020016040519081016040528092919081815260200182805461047590611e43565b80156104c25780601f10610497576101008083540402835291602001916104c2565b820191906000526020600020905b8154815290600101906020018083116104a557829003601f168201915b5050505050905090565b60006104d7826109fa565b506104e182610a82565b9050919050565b6104fa82826104f5610abf565b610ac7565b5050565b600073ffffffffffffffffffffffffffffffffffffffff168273ffffffffffffffffffffffffffffffffffffffff16036105705760006040517f64a0ae920000000000000000000000000000000000000000000000000000000081526004016105679190611a7f565b60405180910390fd5b6000610584838361057f610abf565b610ad9565b90508373ffffffffffffffffffffffffffffffffffffffff168173ffffffffffffffffffffffffffffffffffffffff16146105fa578382826040517f64283d7b0000000000000000000000000000000000000000000000000000000081526004016105f193929190611e74565b60405180910390fd5b50505050565b61061b838383604051806020016040528060008152506107e8565b505050565b600061062b826109fa565b9050919050565b60008073ffffffffffffffffffffffffffffffffffffffff168273ffffffffffffffffffffffffffffffffffffffff16036106a55760006040517f89c62b6400000000000000000000000000000000000000000000000000000000815260040161069c9190611a7f565b60405180910390fd5b600360008373ffffffffffffffffffffffffffffffffffffffff1673ffffffffffffffffffffffffffffffffffffffff168152602001908152602001600020549050919050565b6106f4610cf3565b6106fe6000610d7a565b565b6000600660009054906101000a900473ffffffffffffffffffffffffffffffffffffffff16905090565b60606001805461073990611e43565b80601f016020809104026020016040519081016040528092919081815260200182805461076590611e43565b80156107b25780601f10610787576101008083540402835291602001916107b2565b820191906000526020600020905b81548152906001019060200180831161079557829003601f168201915b5050505050905090565b6107c4610cf3565b6107ce8282610e40565b5050565b6107e46107dd610abf565b8383610e5e565b5050565b6107f38484846104fe565b6108076107fe610abf565b85858585610fcd565b50505050565b6060610818826109fa565b50600061082361117e565b90506000815111610843576040518060200160405280600081525061086e565b8061084d84611195565b60405160200161085e929190611ee7565b6040516020818303038152906040525b915050919050565b6000600560008473ffffffffffffffffffffffffffffffffffffffff1673ffffffffffffffffffffffffffffffffffffffff16815260200190815260200160002060008373ffffffffffffffffffffffffffffffffffffffff1673ffffffffffffffffffffffffffffffffffffffff16815260200190815260200160002060009054906101000a900460ff16905092915050565b610912610cf3565b600073ffffffffffffffffffffffffffffffffffffffff168173ffffffffffffffffffffffffffffffffffffffff16036109845760006040517f1e4fbdf700000000000000000000000000000000000000000000000000000000815260040161097b9190611a7f565b60405180910390fd5b61098d81610d7a565b50565b60007f01ffc9a7000000000000000000000000000000000000000000000000000000007bffffffffffffffffffffffffffffffffffffffffffffffffffffffff1916827bffffffffffffffffffffffffffffffffffffffffffffffffffffffff1916149050919050565b600080610a0683611263565b9050600073ffffffffffffffffffffffffffffffffffffffff168173ffffffffffffffffffffffffffffffffffffffff1603610a7957826040517f7e273289000000000000000000000000000000000000000000000000000000008152600401610a709190611b95565b60405180910390fd5b80915050919050565b60006004600083815260200190815260200160002060009054906101000a900473ffffffffffffffffffffffffffffffffffffffff169050919050565b600033905090565b610ad483838360016112a0565b505050565b600080610ae584611263565b9050600073ffffffffffffffffffffffffffffffffffffffff168373ffffffffffffffffffffffffffffffffffffffff1614610b2757610b26818486611465565b5b600073ffffffffffffffffffffffffffffffffffffffff168173ffffffffffffffffffffffffffffffffffffffff1614610bb857610b696000856000806112a0565b6001600360008373ffffffffffffffffffffffffffffffffffffffff1673ffffffffffffffffffffffffffffffffffffffff168152602001908152602001600020600082825403925050819055505b600073ffffffffffffffffffffffffffffffffffffffff168573ffffffffffffffffffffffffffffffffffffffff1614610c3b576001600360008773ffffffffffffffffffffffffffffffffffffffff1673ffffffffffffffffffffffffffffffffffffffff168152602001908152602001600020600082825401925050819055505b846002600086815260200190815260200160002060006101000a81548173ffffffffffffffffffffffffffffffffffffffff021916908373ffffffffffffffffffffffffffffffffffffffff160217905550838573ffffffffffffffffffffffffffffffffffffffff168273ffffffffffffffffffffffffffffffffffffffff167fddf252ad1be2c89b69c2b068fc378daa952ba7f163c4a11628f55a4df523b3ef60405160405180910390a4809150509392505050565b610cfb610abf565b73ffffffffffffffffffffffffffffffffffffffff16610d19610700565b73ffffffffffffffffffffffffffffffffffffffff1614610d7857610d3c610abf565b6040517f118cdaa7000000000000000000000000000000000000000000000000000000008152600401610d6f9190611a7f565b60405180910390fd5b565b6000600660009054906101000a900473ffffffffffffffffffffffffffffffffffffffff16905081600660006101000a81548173ffffffffffffffffffffffffffffffffffffffff021916908373ffffffffffffffffffffffffffffffffffffffff1602179055508173ffffffffffffffffffffffffffffffffffffffff168173ffffffffffffffffffffffffffffffffffffffff167f8be0079c531659141344cd1fd0a4f28419497f9722a3daafe3b4186f6b6457e060405160405180910390a35050565b610e5a828260405180602001604052806000815250611529565b5050565b600073ffffffffffffffffffffffffffffffffffffffff168273ffffffffffffffffffffffffffffffffffffffff1603610ecf57816040517f5b08ba18000000000000000000000000000000000000000000000000000000008152600401610ec69190611a7f565b60405180910390fd5b80600560008573ffffffffffffffffffffffffffffffffffffffff1673ffffffffffffffffffffffffffffffffffffffff16815260200190815260200160002060008473ffffffffffffffffffffffffffffffffffffffff1673ffffffffffffffffffffffffffffffffffffffff16815260200190815260200160002060006101000a81548160ff0219169083151502179055508173ffffffffffffffffffffffffffffffffffffffff168373ffffffffffffffffffffffffffffffffffffffff167f17307eab39ab6107e8899845ad3d59bd9653f200f220920489ca2b5937696c3183604051610fc0919061190e565b60405180910390a3505050565b60008373ffffffffffffffffffffffffffffffffffffffff163b1115611177578273ffffffffffffffffffffffffffffffffffffffff1663150b7a02868685856040518563ffffffff1660e01b815260040161102c9493929190611f60565b6020604051808303816000875af192505050801561106857506040513d601f19601f820116820180604052508101906110659190611fc1565b60015b6110ec573d8060008114611098576040519150601f19603f3d011682016040523d82523d6000602084013e61109d565b606091505b5060008151036110e457836040517f64a0ae920000000000000000000000000000000000000000000000000000000081526004016110db9190611a7f565b60405180910390fd5b805160208201fd5b63150b7a0260e01b7bffffffffffffffffffffffffffffffffffffffffffffffffffffffff1916817bffffffffffffffffffffffffffffffffffffffffffffffffffffffff19161461117557836040517f64a0ae9200000000000000000000000000000000000000000000000000000000815260040161116c9190611a7f565b60405180910390fd5b505b5050505050565b606060405180602001604052806000815250905090565b6060600060016111a48461154d565b01905060008167ffffffffffffffff8111156111c3576111c2611c26565b5b6040519080825280601f01601f1916602001820160405280156111f55781602001600182028036833780820191505090505b509050600082602083010190505b600115611258578080600190039150507f3031323334353637383961626364656600000000000000000000000000000000600a86061a8153600a858161124c5761124b611fee565b5b04945060008503611203575b819350505050919050565b60006002600083815260200190815260200160002060009054906101000a900473ffffffffffffffffffffffffffffffffffffffff169050919050565b80806112d95750600073ffffffffffffffffffffffffffffffffffffffff168273ffffffffffffffffffffffffffffffffffffffff1614155b1561140d5760006112e9846109fa565b9050600073ffffffffffffffffffffffffffffffffffffffff168373ffffffffffffffffffffffffffffffffffffffff161415801561135457508273ffffffffffffffffffffffffffffffffffffffff168173ffffffffffffffffffffffffffffffffffffffff1614155b801561136757506113658184610876565b155b156113a957826040517fa9fbf51f0000000000000000000000000000000000000000000000000000000081526004016113a09190611a7f565b60405180910390fd5b811561140b57838573ffffffffffffffffffffffffffffffffffffffff168273ffffffffffffffffffffffffffffffffffffffff167f8c5be1e5ebec7d5bd14f71427d1e84f3dd0314c0f7b2291e5b200ac8c7c3b92560405160405180910390a45b505b836004600085815260200190815260200160002060006101000a81548173ffffffffffffffffffffffffffffffffffffffff021916908373ffffffffffffffffffffffffffffffffffffffff16021790555050505050565b6114708383836116a0565b61152457600073ffffffffffffffffffffffffffffffffffffffff168373ffffffffffffffffffffffffffffffffffffffff16036114e557806040517f7e2732890000000000000000000000000000000000000000000000000000000081526004016114dc9190611b95565b60405180910390fd5b81816040517f177e802f00000000000000000000000000000000000000000000000000000000815260040161151b92919061201d565b60405180910390fd5b505050565b6115338383611761565b61154861153e610abf565b6000858585610fcd565b505050565b600080600090507a184f03e93ff9f4daa797ed6e38ed64bf6a1f01000000000000000083106115ab577a184f03e93ff9f4daa797ed6e38ed64bf6a1f01000000000000000083816115a1576115a0611fee565b5b0492506040810190505b6d04ee2d6d415b85acef810000000083106115e8576d04ee2d6d415b85acef810000000083816115de576115dd611fee565b5b0492506020810190505b662386f26fc10000831061161757662386f26fc10000838161160d5761160c611fee565b5b0492506010810190505b6305f5e1008310611640576305f5e100838161163657611635611fee565b5b0492506008810190505b612710831061166557612710838161165b5761165a611fee565b5b0492506004810190505b60648310611688576064838161167e5761167d611fee565b5b0492506002810190505b600a8310611697576001810190505b80915050919050565b60008073ffffffffffffffffffffffffffffffffffffffff168373ffffffffffffffffffffffffffffffffffffffff161415801561175857508273ffffffffffffffffffffffffffffffffffffffff168473ffffffffffffffffffffffffffffffffffffffff16148061171957506117188484610876565b5b8061175757508273ffffffffffffffffffffffffffffffffffffffff1661173f83610a82565b73ffffffffffffffffffffffffffffffffffffffff16145b5b90509392505050565b600073ffffffffffffffffffffffffffffffffffffffff168273ffffffffffffffffffffffffffffffffffffffff16036117d35760006040517f64a0ae920000000000000000000000000000000000000000000000000000000081526004016117ca9190611a7f565b60405180910390fd5b60006117e183836000610ad9565b9050600073ffffffffffffffffffffffffffffffffffffffff168173ffffffffffffffffffffffffffffffffffffffff16146118555760006040517f73c6ac6e00000000000000000000000000000000000000000000000000000000815260040161184c9190611a7f565b60405180910390fd5b505050565b6000604051905090565b600080fd5b600080fd5b60007fffffffff0000000000000000000000000000000000000000000000000000000082169050919050565b6118a38161186e565b81146118ae57600080fd5b50565b6000813590506118c08161189a565b92915050565b6000602082840312156118dc576118db611864565b5b60006118ea848285016118b1565b91505092915050565b60008115159050919050565b611908816118f3565b82525050565b600060208201905061192360008301846118ff565b92915050565b600081519050919050565b600082825260208201905092915050565b60005b83811015611963578082015181840152602081019050611948565b60008484015250505050565b6000601f19601f8301169050919050565b600061198b82611929565b6119958185611934565b93506119a5818560208601611945565b6119ae8161196f565b840191505092915050565b600060208201905081810360008301526119d38184611980565b905092915050565b6000819050919050565b6119ee816119db565b81146119f957600080fd5b50565b600081359050611a0b816119e5565b92915050565b600060208284031215611a2757611a26611864565b5b6000611a35848285016119fc565b91505092915050565b600073ffffffffffffffffffffffffffffffffffffffff82169050919050565b6000611a6982611a3e565b9050919050565b611a7981611a5e565b82525050565b6000602082019050611a946000830184611a70565b92915050565b611aa381611a5e565b8114611aae57600080fd5b50565b600081359050611ac081611a9a565b92915050565b60008060408385031215611add57611adc611864565b5b6000611aeb85828601611ab1565b9250506020611afc858286016119fc565b9150509250929050565b600080600060608486031215611b1f57611b1e611864565b5b6000611b2d86828701611ab1565b9350506020611b3e86828701611ab1565b9250506040611b4f868287016119fc565b9150509250925092565b600060208284031215611b6f57611b6e611864565b5b6000611b7d84828501611ab1565b91505092915050565b611b8f816119db565b82525050565b6000602082019050611baa6000830184611b86565b92915050565b611bb9816118f3565b8114611bc457600080fd5b50565b600081359050611bd681611bb0565b92915050565b60008060408385031215611bf357611bf2611864565b5b6000611c0185828601611ab1565b9250506020611c1285828601611bc7565b9150509250929050565b600080fd5b600080fd5b7f4e487b7100000000000000000000000000000000000000000000000000000000600052604160045260246000fd5b611c5e8261196f565b810181811067ffffffffffffffff82111715611c7d57611c7c611c26565b5b80604052505050565b6000611c9061185a565b9050611c9c8282611c55565b919050565b600067ffffffffffffffff821115611cbc57611cbb611c26565b5b611cc58261196f565b9050602081019050919050565b82818337600083830152505050565b6000611cf4611cef84611ca1565b611c86565b905082815260208101848484011115611d1057611d0f611c21565b5b611d1b848285611cd2565b509392505050565b600082601f830112611d3857611d37611c1c565b5b8135611d48848260208601611ce1565b91505092915050565b60008060008060808587031215611d6b57611d6a611864565b5b6000611d7987828801611ab1565b9450506020611d8a87828801611ab1565b9350506040611d9b878288016119fc565b925050606085013567ffffffffffffffff811115611dbc57611dbb611869565b5b611dc887828801611d23565b91505092959194509250565b60008060408385031215611deb57611dea611864565b5b6000611df985828601611ab1565b9250506020611e0a85828601611ab1565b9150509250929050565b7f4e487b7100000000000000000000000000000000000000000000000000000000600052602260045260246000fd5b60006002820490506001821680611e5b57607f821691505b602082108103611e6e57611e6d611e14565b5b50919050565b6000606082019050611e896000830186611a70565b611e966020830185611b86565b611ea36040830184611a70565b949350505050565b600081905092915050565b6000611ec182611929565b611ecb8185611eab565b9350611edb818560208601611945565b80840191505092915050565b6000611ef38285611eb6565b9150611eff8284611eb6565b91508190509392505050565b600081519050919050565b600082825260208201905092915050565b6000611f3282611f0b565b611f3c8185611f16565b9350611f4c818560208601611945565b611f558161196f565b840191505092915050565b6000608082019050611f756000830187611a70565b611f826020830186611a70565b611f8f6040830185611b86565b8181036060830152611fa18184611f27565b905095945050505050565b600081519050611fbb8161189a565b92915050565b600060208284031215611fd757611fd6611864565b5b6000611fe584828501611fac565b91505092915050565b7f4e487b7100000000000000000000000000000000000000000000000000000000600052601260045260246000fd5b60006040820190506120326000830185611a70565b61203f6020830184611b86565b939250505056fea2646970667358221220f88cf8ffe941ba265c009850f6475bb9d646fe5350506958d0b2255805d57c4564736f6c63430008180033",
  "linkReferences": {},
  "deployedLinkReferences": {}
}